:020000040000FA
:100000000C945D000C9485000C9485000C94850084
:100010000C9485000C9485000C9485000C9485004C
:100020000C9485000C9485000C9485000C9485003C
:100030000C9485000C9485000C9485000C9485002C
:100040000C9496030C9485000C9464030C943E036A
:100050000C9485000C9485000C9485000C9485000C
:100060000C9485000C94850000000008000201003B
:100070000003040700000000000000000000000072
:10008000250028002B0000000000240027002A0083
:10009000040404040404040402020202020203032E
:1000A0000303030301020408102040800102040836
:1000B0001020010204081020E00311241FBECFEF1E
:1000C000D8E0DEBFCDBF22E0AEE4B1E001C01D92BA
:1000D000A834B207E1F711E0A0E0B1E0E8E8F3E10D
:1000E00002C005900D92AE34B107D9F710E0CDE50E
:1000F000D0E004C02197FE010E94BC09CC35D10795
:10010000C9F70E944E040C94C2090C94000090E0C0
:10011000FC01EC55FF4F249180579F4FFC018491C7
:10012000882399F090E0880F991FFC01EA57FF4F50
:10013000A591B491FC01E458FF4F859194918FB73C
:10014000F894EC91E22BEC938FBF0895EBE5F1E08E
:10015000A089B18982E08C93A485B5851C92A6857F
:10016000B7858FEC8C93108EA489B58986E08C932B
:10017000A289B3898C9180618C93A289B3898C9177
:1001800088608C93A289B3898C9180688C93028853
:10019000F389E02D80818F7D80830895AF92BF9297
:1001A000CF92DF92EF92FF920F931F93CF93DF9343
:1001B0006C017B018B01040F151FEB015E01AE1872
:1001C000BF08C017D10759F06991D601ED91FC9194
:1001D0000190F081E02DC6010995892B79F7C501C1
:1001E000DF91CF911F910F91FF90EF90DF90CF9013
:1001F000BF90AF900895FC01538D448D252F30E0C2
:10020000842F90E0821B930B541710F0CF96089523
:1002100001970895FC01918D828D981761F0A28D50
:10022000AE0FBF2FB11D5D968C91928D9F5F9F7316
:10023000928F90E008958FEF9FEF0895FC01918DCC
:10024000828D981731F0828DE80FF11D858D90E039
:1002500008958FEF9FEF0895FC01918D228D892FD6
:1002600090E0805C9F4F821B91098F7399270895BE
:100270008BE591E00E942C0121E0892B09F420E01C
:10028000822F089580E090E0892B29F00E943801A8
:1002900081110C9400000895FC01A48DA80FB92FC2
:1002A000B11DA35ABF4F2C91848D90E001968F739E
:1002B0009927848FA689B7892C93A089B1898C91BD
:1002C000837080648C93938D848D981306C002880C
:1002D000F389E02D80818F7D80830895EF92FF92D6
:1002E0000F931F93CF93DF93EC0181E0888F9B8D59
:1002F0008C8D98131AC0E889F989808185FF15C013
:100300009FB7F894EE89FF896083E889F989808135
:100310008370806480839FBF81E090E0DF91CF9104
:100320001F910F91FF90EF900895F62E0B8D10E026
:100330000F5F1F4F0F731127E02E8C8D8E110CC095
:100340000FB607FCFACFE889F989808185FFF5CFE0
:10035000CE010E944C01F1CFEB8DEC0FFD2FF11D72
:10036000E35AFF4FF0829FB7F8940B8FEA89FB891D
:1003700080818062CFCFCF93DF93EC01888D88237B
:10038000B9F0AA89BB89E889F9898C9185FD03C0F8
:10039000808186FD0DC00FB607FCF7CF8C9185FFDD
:1003A000F2CF808185FFEDCFCE010E944C01E9CFD5
:1003B000DF91CF91089590E0FC01E859FF4F24911F
:1003C000FC01EC55FF4F3491FC01E057FF4FE491E5
:1003D000EE23C9F0222339F0233001F1A8F42130B3
:1003E00019F1223029F1F0E0EE0FFF1FE458FF4F22
:1003F000A591B4918FB7F894EC91611126C0309516
:100400003E233C938FBF08952730A9F02830C9F0D0
:10041000243049F7809180008F7D03C08091800057
:100420008F7780938000DFCF84B58F7784BDDBCF5B
:1004300084B58F7DFBCF8091B0008F778093B00023
:10044000D2CF8091B0008F7DF9CF3E2BDACF8E30A6
:1004500008F08E508770806480937C0080917A00D1
:10046000806480937A0080917A0086FDFCCF809131
:1004700078009091790008953FB7F89480915301E6
:1004800090915401A0915501B091560126B5A89BB9
:1004900005C02F3F19F00196A11DB11D3FBFBA2F16
:1004A000A92F982F8827BC01CD01620F711D811DD6
:1004B000911D42E0660F771F881F991F4A95D1F75B
:1004C00008958F929F92AF92BF92CF92DF92EF9258
:1004D000FF924B015C010E943C026B017C010E9477
:1004E0003C026C197D098E099F09683E73408105A5
:1004F0009105A8F321E0821A9108A108B10888EEBD
:10050000C80E83E0D81EE11CF11C81149104A104E3
:10051000B10429F7FF90EF90DF90CF90BF90AF909C
:100520009F908F9008952FB7F89460914F0170912C
:10053000500180915101909152012FBF0895FC010B
:1005400001900020E9F73197AF01481B590BBC011E
:100550008BE591E00C94CE008F929F92AF92BF9268
:100560000F931F93CF93DF93CDB7DEB7A1970FB64D
:10057000F894DEBF0FBECDBF19A2423008F44AE0A6
:100580008E010F5D1F4F842E912CB12CA12CA50143
:1005900094010E948208E62FB901CA01EA30F4F4FE
:1005A000E05DD801EE938D01232B242B252B79F7C9
:1005B00090E080E0109719F0CD010E949F02A19673
:1005C0000FB6F894DEBF0FBECDBFDF91CF911F9164
:1005D0000F91BF90AF909F908F900895E95CE1CF0D
:1005E000EF92FF920F931F93CF93DF9300D000D031
:1005F000CDB7DEB78BE591E00E940A018BE591E073
:100600000E940A018E010F5F1F4F78018A3341F06B
:10061000F80181938F018BE591E00E940A01F6CFEA
:10062000C7010E943807182F8BE591E00E940A014C
:100630008053990B8230910520F4682F812F0E94FE
:10064000DB018BE591E00E940A018A3011F08D30C8
:10065000C1F78BE591E00E941E018A3021F48BE501
:1006600091E00E940A010F900F900F900F90DF9180
:10067000CF911F910F91FF90EF9008951F920F92CD
:100680000FB60F9211242F933F934F935F936F9365
:100690007F938F939F93AF93BF93EF93FF938BE5DC
:1006A00091E00E944C01FF91EF91BF91AF919F911A
:1006B0008F917F916F915F914F913F912F910F900B
:1006C0000FBE0F901F9018951F920F920FB60F92AA
:1006D00011242F938F939F93EF93FF93E0916B01DE
:1006E000F0916C018081E0917101F091720182FDC5
:1006F0001BC09081809174018F5F8F732091750171
:10070000821741F0E0917401F0E0E55AFE4F958FB9
:1007100080937401FF91EF919F918F912F910F9092
:100720000FBE0F901F9018958081F4CF1F920F92EB
:100730000FB60F9211242F933F938F939F93AF93F4
:10074000BF9380914F0190915001A0915101B091C0
:10075000520130914E0123E0230F2D3758F50196B9
:10076000A11DB11D20934E0180934F019093500124
:10077000A0935101B0935201809153019091540183
:10078000A0915501B09156010196A11DB11D809314
:10079000530190935401A0935501B0935601BF911A
:1007A000AF919F918F913F912F910F900FBE0F901E
:1007B0001F90189526E8230F0296A11DB11DD2CFD8
:1007C000CF93DF93EBE5F1E01382128288EE93E0A2
:1007D000A0E0B0E084839583A683B78385E091E0B1
:1007E0009183808385EC90E09587848784EC90E00A
:1007F0009787868780EC90E0918B808B81EC90E0EE
:10080000938B828B82EC90E0958B848B86EC90E0CE
:10081000978B868B118E128E138E148EE8EFF1E07B
:100820001682178210861186128613861486158604
:1008300016861786108A118A128A138A148A158AD4
:10084000C2E4D2E082E090E09983888383E090E084
:100850009B838A8384E090E09D838C8382E00E9466
:1008600087008A810E9487008C810E94870060E057
:100870008A810E94DB0160E08C810E94DB018EE0B6
:1008800090E090934102809340028FE090E090933B
:100890003F0280933E02DF91CF910895789484B512
:1008A000826084BD84B5816084BD85B5826085BD6C
:1008B00085B5816085BD80916E00816080936E00FA
:1008C00010928100809181008260809381008091EC
:1008D000810081608093810080918000816080939D
:1008E00080008091B10084608093B1008091B0005D
:1008F00081608093B00080917A00846080937A0058
:1009000080917A00826080937A0080917A00816081
:1009100080937A0080917A00806880937A001092A8
:10092000C10010923A0210923B0210923C021092C7
:100930003D021092FA011092FB011092FC011092FC
:10094000FD010E9493026B017C014B015C0128EBCD
:10095000820E2BE0921EA11CB11C0E9493026C150A
:100960007D058E059F0528F086169706A806B90610
:10097000A0F768EE73E080E090E00E9461020E94C0
:10098000A6000E9493026093FA017093FB0180938A
:10099000FC019093FD0183E191E00E949F020E947F
:1009A00093026B017C014B015C013AE0830E911CC8
:1009B000A11CB11C0E9493026C157D058E059F053C
:1009C00028F086169706A806B906A0F781E080935E
:1009D0000E020E9493026093FA017093FB018093D0
:1009E000FC019093FD0184E291E00E949F02C0917E
:1009F00042028C2F0E94870061E08C2F0E94DB0155
:100A000061E0809144020E94DB0160E08091460237
:100A10000E94DB010E94A60064EF71E080E090E09C
:100A20000E946102C0E0D0E00E949302672B682B15
:100A3000692B09F4F5C00E949302C0905701D09031
:100A40005801E0905901F0905A016C157D058E0512
:100A50009F0508F44DC1C0905701D0905801E09017
:100A60005901F0905A019B01AC012C193D094E0926
:100A70005F0969017A0138EEC31633E0D306E10459
:100A8000F10408F4D5C06093570170935801809326
:100A9000590190935A0184EF91E0A0E0B0E0809377
:100AA000060290930702A0930802B09309021092E5
:100AB0000A0210920B0210920C0210920D02809109
:100AC000FE019091FF01A0910002B091010280937C
:100AD000020290930302A0930402B09305020E94C5
:100AE00093026093FE017093FF0180930002909344
:100AF00001028BE591E00E941E01843611F40E94F0
:100B0000F0020E9493026093FA017093FB018093BC
:100B1000FC019093FD010E9493026B017C018BE22A
:100B200091E00E949F024AE061E070E080E090E086
:100B30000E94AC0282E391E00E949F024AE0C7015A
:100B4000B6010E94AC0284E391E00E949F02809172
:100B5000FE019091FF01A0910002B0910102A70156
:100B60009601281B390B4A0B5B0BCA01B9014AE0FD
:100B70000E94AC0284E391E00E949F026091FE011A
:100B80007091FF018091000290910102C0900202D9
:100B9000D0900302E0900402F09005026C197D09E8
:100BA0008E099F094AE00E94AC0286E391E00E9410
:100BB0009F020E9493024AE00E94AC0288E391E007
:100BC0000E949F028FE391E00E949F020E94930285
:100BD0004B015C017C016B0132E0C30ED11CE11CB6
:100BE000F11C0E949302681579058A059B0528F07F
:100BF000C616D706E806F906A0F78BE591E00E9435
:100C00001E01843611F40E94F0020E949302609348
:100C1000FE017093FF01809300029093010208C0CF
:100C20000E949302623071058105910508F003CF9F
:100C3000809140020E9427026C0180913E020E9436
:100C400027027C01B601DD0C880B990B0E94650719
:100C500020E030EC4FE754E40E9411094B015C01A5
:100C6000B701FF0C880B990B0E94650720E030EC60
:100C70004FE754E40E9411099B01AC01C501B40186
:100C80000E94A4086B017C01AC019B010E94B70982
:100C90008823B9F182E491E00E949F028FE391E002
:100CA0000E949F0220E030E0A901C701B6010E9426
:100CB000B20918160CF0B7C0809100018111CEC0A6
:100CC00061E0809144020E94DB0160E08091460275
:100CD0000E94DB0181E080930001209709F4A4CEFB
:100CE0000E943801882309F49FCE0E9400009CCE08
:100CF00060935701709358018093590190935A0162
:100D0000AACE46015701E894B7F82FEF3FEF4FE71F
:100D10005FE7C501B4010E94B70981110DC02FEF33
:100D20003FEF4FE75FE7C501B4010E945E07181669
:100D30001CF486E491E0B0CF2FEF3FEF4FE75FE484
:100D4000C701B6010E94B20918161CF48AE491E0AA
:100D5000A3CF2FEF3FEF4FE75FECC701B6010E9433
:100D60005E0787FDF3CF20E030E0A901C701B6019F
:100D70000E945E0787FF54C06DE28BE591E00E9400
:100D80006E01C701B60190582AE037ED43EA5BE3F4
:100D90000E94A5082B013C010E9483094B015C01C4
:100DA0000E9463079B01AC01C301B2010E94A40829
:100DB0002B013C014AE0C501B4010E94AC026EE285
:100DC0008BE591E00E946E0120E030E040E251E4CA
:100DD000C301B2010E94C4072B013C010E94830998
:100DE0004B01B12CA12C4AE0C501B4010E94AC0218
:100DF000C501B4010E9463079B01AC01C301B201AC
:100E00000E94A40820E030E040E251E40E94C407C0
:100E10000E94830990E080E04AE00E94AC023ECF4D
:100E2000C701B601B1CF20E030E0A901C701B6018A
:100E30000E945E0787FF51CF80910001882309F44B
:100E40004CCF60E0809144020E94DB0161E0809120
:100E500046020E94DB01109200013FCF20E030E00B
:100E6000A901C701B6010E945E0787FF36CFE9CF0F
:100E7000FC0188279927E89421912032E9F3293051
:100E800010F02E30C8F32B3241F02D3239F4689433
:100E900004C00E945607820F911D219120532A30D1
:100EA000C0F31EF4909581959F4F08957AE0979F27
:100EB000902D879F802D910D112408950E94A007E9
:100EC00008F481E00895E89409C097FB3EF49095FA
:100ED0008095709561957F4F8F4F9F4F9923A9F013
:100EE000F92F96E9BB279395F695879577956795A2
:100EF000B795F111F8CFFAF4BB0F11F460FF1BC0E6
:100F00006F5F7F4F8F4F9F4F16C0882311F096E978
:100F100011C0772321F09EE8872F762F05C0662326
:100F200071F096E8862F70E060E02AF09A95660FDF
:100F3000771F881FDAF7880F9695879597F9089598
:100F4000990F0008550FAA0BE0E8FEEF16161706DA
:100F5000E807F907C0F012161306E407F50798F042
:100F6000621B730B840B950B39F40A2661F0232B5B
:100F7000242B252B21F408950A2609F4A140A695D7
:100F80008FEF811D811D08950E94D7070C9448089A
:100F90000E943A0838F00E94410820F0952311F091
:100FA0000C9431080C94370811240C947C080E948E
:100FB000590870F3959FC1F3950F50E0551F629F3C
:100FC000F001729FBB27F00DB11D639FAA27F00DA2
:100FD000B11DAA1F649F6627B00DA11D661F829FC9
:100FE0002227B00DA11D621F739FB00DA11D621FAE
:100FF000839FA00D611D221F749F3327A00D611DCB
:10100000231F849F600D211D822F762F6A2F1124AC
:101010009F5750409AF0F1F088234AF0EE0FFF1FDF
:10102000BB1F661F771F881F91505040A9F79E3F36
:10103000510580F00C9431080C947C085F3FE4F378
:10104000983ED4F3869577956795B795F795E7958C
:101050009F5FC1F7FE2B880F911D9695879597F995
:10106000089597F99F6780E870E060E008959FEF2A
:1010700080EC089500240A9416161706180609062F
:10108000089500240A9412161306140605060895FE
:10109000092E0394000C11F4882352F0BB0F40F486
:1010A000BF2B11F460FF04C06F5F7F4F8F4F9F4FC6
:1010B000089557FD9058440F551F59F05F3F71F048
:1010C0004795880F97FB991F61F09F3F79F08795AF
:1010D0000895121613061406551FF2CF4695F1DF38
:1010E00008C0161617061806991FF1CF86957105C8
:1010F000610508940895E894BB2766277727CB01FC
:1011000097F90895A1E21A2EAA1BBB1BFD010DC081
:10111000AA1FBB1FEE1FFF1FA217B307E407F507A7
:1011200020F0A21BB30BE40BF50B661F771F881F83
:10113000991F1A9469F760957095809590959B0119
:10114000AC01BD01CF0108955058BB27AA270E94CA
:10115000BC080C9448080E943A0838F00E944108E4
:1011600020F039F49F3F19F426F40C9437080EF45C
:10117000E095E7FB0C943108E92F0E94590858F3D9
:10118000BA17620773078407950720F079F4A6F56C
:101190000C947B080EF4E0950B2EBA2FA02D0B01BA
:1011A000B90190010C01CA01A0011124FF27591BAC
:1011B00099F0593F50F4503E68F11A16F040A22FB2
:1011C000232F342F4427585FF3CF46953795279523
:1011D000A795F0405395C9F77EF41F16BA0B620B22
:1011E000730B840BBAF09150A1F0FF0FBB1F661F69
:1011F000771F881FC2F70EC0BA0F621F731F841FAC
:1012000048F4879577956795B795F7959E3F08F0D1
:10121000B0CF9395880F08F09927EE0F9795879593
:1012200008950E9425090C9448080E94410858F02E
:101230000E943A0840F029F45F3F29F00C943108ED
:1012400051110C947C080C9437080E94590868F3DB
:101250009923B1F3552391F3951B550BBB27AA276F
:1012600062177307840738F09F5F5F4F220F331FA9
:10127000441FAA1FA9F335D00E2E3AF0E0E832D071
:1012800091505040E695001CCAF72BD0FE2F29D074
:10129000660F771F881FBB1F261737074807AB0746
:1012A000B0E809F0BB0B802DBF01FF2793585F4FBB
:1012B0003AF09E3F510578F00C9431080C947C086C
:1012C0005F3FE4F3983ED4F3869577956795B7959D
:1012D000F7959F5FC9F7880F911D9695879597F9A8
:1012E0000895E1E0660F771F881FBB1F6217730721
:1012F0008407BA0720F0621B730B840BBA0BEE1F36
:1013000088F7E09508950E94610888F09F5798F04B
:10131000B92F9927B751B0F0E1F0660F771F881FFA
:10132000991F1AF0BA95C9F714C0B13091F00E9414
:101330007B08B1E008950C947B08672F782F8827ED
:10134000B85F39F0B93FCCF3869577956795B3953B
:10135000D9F73EF490958095709561957F4F8F4FAA
:101360009F4F08950E94A00708F48FEF08950E94F0
:10137000A007880B990B0895EE0FFF1F0590F491BD
:10138000E02D0994F894FFCF01000000006E01CE1B
:1013900000FB00BB012C010A011E01564D445056B2
:1013A0005F317C315F564D4450560A00564D4450D3
:1013B000525F00564D4450455F003A323A007C007F
:1013C0005F564D445045000D0A006E616E00696E17
:0613D00066006F76660066
:107E0000112484B714BE81FFF0D085E080938100F7
:107E100082E08093C00088E18093C10086E0809377
:107E2000C20080E18093C4008EE0C9D0259A86E02C
:107E300020E33CEF91E0309385002093840096BBD3
:107E4000B09BFECF1D9AA8958150A9F7CC24DD24C4
:107E500088248394B5E0AB2EA1E19A2EF3E0BF2EE7
:107E6000A2D0813461F49FD0082FAFD0023811F036
:107E7000013811F484E001C083E08DD089C08234E0
:107E800011F484E103C0853419F485E0A6D080C0E4
:107E9000853579F488D0E82EFF2485D0082F10E0AE
:107EA000102F00270E291F29000F111F8ED06801E7
:107EB0006FC0863521F484E090D080E0DECF843638
:107EC00009F040C070D06FD0082F6DD080E0C81688
:107ED00080E7D80618F4F601B7BEE895C0E0D1E017
:107EE00062D089930C17E1F7F0E0CF16F0E7DF06D8
:107EF00018F0F601B7BEE89568D007B600FCFDCFD4
:107F0000A601A0E0B1E02C9130E011968C91119780
:107F100090E0982F8827822B932B1296FA010C0160
:107F200087BEE89511244E5F5F4FF1E0A038BF0790
:107F300051F7F601A7BEE89507B600FCFDCF97BE46
:107F4000E89526C08437B1F42ED02DD0F82E2BD052
:107F50003CD0F601EF2C8F010F5F1F4F84911BD097
:107F6000EA94F801C1F70894C11CD11CFA94CF0C13
:107F7000D11C0EC0853739F428D08EE10CD085E9AC
:107F80000AD08FE07ACF813511F488E018D01DD067
:107F900080E101D065CF982F8091C00085FFFCCF94
:107FA0009093C60008958091C00087FFFCCF809118
:107FB000C00084FD01C0A8958091C6000895E0E648
:107FC000F0E098E1908380830895EDDF803219F02E
:107FD00088E0F5DFFFCF84E1DECF1F93182FE3DFCA
:107FE0001150E9F7F2DF1F91089580E0E8DFEE27F6
:047FF000FF270994CA
:027FFE00040479
:00000001FF
